{
  "contractName": "LevelStakingPool",
  "abi": [
    {
      "inputs": [
        {
          "internalType": "address",
          "name": "_signer",
          "type": "address"
        },
        {
          "internalType": "address[]",
          "name": "_tokensAllowed",
          "type": "address[]"
        },
        {
          "internalType": "uint256[]",
          "name": "_limits",
          "type": "uint256[]"
        },
        {
          "internalType": "address",
          "name": "_weth",
          "type": "address"
        }
      ],
      "stateMutability": "nonpayable",
      "type": "constructor"
    },
    {
      "inputs": [
        {
          "internalType": "address",
          "name": "target",
          "type": "address"
        }
      ],
      "name": "AddressEmptyCode",
      "type": "error"
    },
    {
      "inputs": [
        {
          "internalType": "address",
          "name": "account",
          "type": "address"
        }
      ],
      "name": "AddressInsufficientBalance",
      "type": "error"
    },
    {
      "inputs": [],
      "name": "CannotDepositForZeroAddress",
      "type": "error"
    },
    {
      "inputs": [],
      "name": "CannotRenounceOwnership",
      "type": "error"
    },
    {
      "inputs": [],
      "name": "DepositAmountCannotBeZero",
      "type": "error"
    },
    {
      "inputs": [],
      "name": "DuplicateToken",
      "type": "error"
    },
    {
      "inputs": [],
      "name": "EnforcedPause",
      "type": "error"
    },
    {
      "inputs": [],
      "name": "ExpectedPause",
      "type": "error"
    },
    {
      "inputs": [],
      "name": "FailedInnerCall",
      "type": "error"
    },
    {
      "inputs": [
        {
          "internalType": "address",
          "name": "account",
          "type": "address"
        },
        {
          "internalType": "uint256",
          "name": "currentNonce",
          "type": "uint256"
        }
      ],
      "name": "InvalidAccountNonce",
      "type": "error"
    },
    {
      "inputs": [],
      "name": "InvalidShortString",
      "type": "error"
    },
    {
      "inputs": [],
      "name": "MigratorAlreadyAllowedOrBlocked",
      "type": "error"
    },
    {
      "inputs": [],
      "name": "MigratorBlocked",
      "type": "error"
    },
    {
      "inputs": [],
      "name": "MigratorCannotBeZeroAddress",
      "type": "error"
    },
    {
      "inputs": [
        {
          "internalType": "address",
          "name": "owner",
          "type": "address"
        }
      ],
      "name": "OwnableInvalidOwner",
      "type": "error"
    },
    {
      "inputs": [
        {
          "internalType": "address",
          "name": "account",
          "type": "address"
        }
      ],
      "name": "OwnableUnauthorizedAccount",
      "type": "error"
    },
    {
      "inputs": [
        {
          "internalType": "address",
          "name": "token",
          "type": "address"
        }
      ],
      "name": "SafeERC20FailedOperation",
      "type": "error"
    },
    {
      "inputs": [],
      "name": "SignatureExpired",
      "type": "error"
    },
    {
      "inputs": [],
      "name": "SignatureInvalid",
      "type": "error"
    },
    {
      "inputs": [],
      "name": "SignerAlreadySetToAddress",
      "type": "error"
    },
    {
      "inputs": [],
      "name": "SignerCannotBeZeroAddress",
      "type": "error"
    },
    {
      "inputs": [],
      "name": "StakingLimitExceeded",
      "type": "error"
    },
    {
      "inputs": [
        {
          "internalType": "string",
          "name": "str",
          "type": "string"
        }
      ],
      "name": "StringTooLong",
      "type": "error"
    },
    {
      "inputs": [],
      "name": "TokenAlreadyConfiguredWithState",
      "type": "error"
    },
    {
      "inputs": [],
      "name": "TokenArrayCannotBeEmpty",
      "type": "error"
    },
    {
      "inputs": [],
      "name": "TokenCannotBeZeroAddress",
      "type": "error"
    },
    {
      "inputs": [],
      "name": "TokenNotAllowedForStaking",
      "type": "error"
    },
    {
      "inputs": [],
      "name": "UserDoesNotHaveStake",
      "type": "error"
    },
    {
      "inputs": [],
      "name": "WETHCannotBeZeroAddress",
      "type": "error"
    },
    {
      "inputs": [],
      "name": "WithdrawAmountCannotBeZero",
      "type": "error"
    },
    {
      "anonymous": false,
      "inputs": [
        {
          "indexed": false,
          "internalType": "address",
          "name": "migrator",
          "type": "address"
        },
        {
          "indexed": false,
          "internalType": "bool",
          "name": "blocked",
          "type": "bool"
        }
      ],
      "name": "BlocklistChanged",
      "type": "event"
    },
    {
      "anonymous": false,
      "inputs": [
        {
          "indexed": true,
          "internalType": "uint256",
          "name": "eventId",
          "type": "uint256"
        },
        {
          "indexed": true,
          "internalType": "address",
          "name": "depositor",
          "type": "address"
        },
        {
          "indexed": true,
          "internalType": "address",
          "name": "token",
          "type": "address"
        },
        {
          "indexed": false,
          "internalType": "uint256",
          "name": "amount",
          "type": "uint256"
        }
      ],
      "name": "Deposit",
      "type": "event"
    },
    {
      "anonymous": false,
      "inputs": [],
      "name": "EIP712DomainChanged",
      "type": "event"
    },
    {
      "anonymous": false,
      "inputs": [
        {
          "indexed": true,
          "internalType": "uint256",
          "name": "eventId",
          "type": "uint256"
        },
        {
          "indexed": true,
          "internalType": "address",
          "name": "user",
          "type": "address"
        },
        {
          "indexed": false,
          "internalType": "address[]",
          "name": "tokens",
          "type": "address[]"
        },
        {
          "indexed": false,
          "internalType": "address",
          "name": "destination",
          "type": "address"
        },
        {
          "indexed": false,
          "internalType": "address",
          "name": "migrator",
          "type": "address"
        },
        {
          "indexed": false,
          "internalType": "uint256[]",
          "name": "amounts",
          "type": "uint256[]"
        }
      ],
      "name": "Migrate",
      "type": "event"
    },
    {
      "anonymous": false,
      "inputs": [
        {
          "indexed": true,
          "internalType": "address",
          "name": "previousOwner",
          "type": "address"
        },
        {
          "indexed": true,
          "internalType": "address",
          "name": "newOwner",
          "type": "address"
        }
      ],
      "name": "OwnershipTransferStarted",
      "type": "event"
    },
    {
      "anonymous": false,
      "inputs": [
        {
          "indexed": true,
          "internalType": "address",
          "name": "previousOwner",
          "type": "address"
        },
        {
          "indexed": true,
          "internalType": "address",
          "name": "newOwner",
          "type": "address"
        }
      ],
      "name": "OwnershipTransferred",
      "type": "event"
    },
    {
      "anonymous": false,
      "inputs": [
        {
          "indexed": false,
          "internalType": "address",
          "name": "account",
          "type": "address"
        }
      ],
      "name": "Paused",
      "type": "event"
    },
    {
      "anonymous": false,
      "inputs": [
        {
          "indexed": false,
          "internalType": "address",
          "name": "newSigner",
          "type": "address"
        }
      ],
      "name": "SignerChanged",
      "type": "event"
    },
    {
      "anonymous": false,
      "inputs": [
        {
          "indexed": false,
          "internalType": "address",
          "name": "token",
          "type": "address"
        },
        {
          "indexed": false,
          "internalType": "uint256",
          "name": "amount",
          "type": "uint256"
        }
      ],
      "name": "TokenStakabilityChanged",
      "type": "event"
    },
    {
      "anonymous": false,
      "inputs": [
        {
          "indexed": false,
          "internalType": "address",
          "name": "account",
          "type": "address"
        }
      ],
      "name": "Unpaused",
      "type": "event"
    },
    {
      "anonymous": false,
      "inputs": [
        {
          "indexed": true,
          "internalType": "uint256",
          "name": "eventId",
          "type": "uint256"
        },
        {
          "indexed": true,
          "internalType": "address",
          "name": "withdrawer",
          "type": "address"
        },
        {
          "indexed": true,
          "internalType": "address",
          "name": "token",
          "type": "address"
        },
        {
          "indexed": false,
          "internalType": "uint256",
          "name": "amount",
          "type": "uint256"
        }
      ],
      "name": "Withdraw",
      "type": "event"
    },
    {
      "inputs": [],
      "name": "acceptOwnership",
      "outputs": [],
      "stateMutability": "nonpayable",
      "type": "function"
    },
    {
      "inputs": [
        {
          "internalType": "address",
          "name": "",
          "type": "address"
        },
        {
          "internalType": "address",
          "name": "",
          "type": "address"
        }
      ],
      "name": "balance",
      "outputs": [
        {
          "internalType": "uint256",
          "name": "",
          "type": "uint256"
        }
      ],
      "stateMutability": "view",
      "type": "function"
    },
    {
      "inputs": [
        {
          "internalType": "address",
          "name": "_migrator",
          "type": "address"
        },
        {
          "internalType": "bool",
          "name": "_blocklisted",
          "type": "bool"
        }
      ],
      "name": "blockMigrator",
      "outputs": [],
      "stateMutability": "nonpayable",
      "type": "function"
    },
    {
      "inputs": [
        {
          "internalType": "address",
          "name": "_for",
          "type": "address"
        }
      ],
      "name": "depositETHFor",
      "outputs": [],
      "stateMutability": "payable",
      "type": "function"
    },
    {
      "inputs": [
        {
          "internalType": "address",
          "name": "_token",
          "type": "address"
        },
        {
          "internalType": "address",
          "name": "_for",
          "type": "address"
        },
        {
          "internalType": "uint256",
          "name": "_amount",
          "type": "uint256"
        }
      ],
      "name": "depositFor",
      "outputs": [],
      "stateMutability": "nonpayable",
      "type": "function"
    },
    {
      "inputs": [],
      "name": "eip712Domain",
      "outputs": [
        {
          "internalType": "bytes1",
          "name": "fields",
          "type": "bytes1"
        },
        {
          "internalType": "string",
          "name": "name",
          "type": "string"
        },
        {
          "internalType": "string",
          "name": "version",
          "type": "string"
        },
        {
          "internalType": "uint256",
          "name": "chainId",
          "type": "uint256"
        },
        {
          "internalType": "address",
          "name": "verifyingContract",
          "type": "address"
        },
        {
          "internalType": "bytes32",
          "name": "salt",
          "type": "bytes32"
        },
        {
          "internalType": "uint256[]",
          "name": "extensions",
          "type": "uint256[]"
        }
      ],
      "stateMutability": "view",
      "type": "function"
    },
    {
      "inputs": [],
      "name": "levelSigner",
      "outputs": [
        {
          "internalType": "address",
          "name": "",
          "type": "address"
        }
      ],
      "stateMutability": "view",
      "type": "function"
    },
    {
      "inputs": [
        {
          "internalType": "address[]",
          "name": "_tokens",
          "type": "address[]"
        },
        {
          "internalType": "address",
          "name": "_migratorContract",
          "type": "address"
        },
        {
          "internalType": "address",
          "name": "_destination",
          "type": "address"
        },
        {
          "internalType": "uint256",
          "name": "_signatureExpiry",
          "type": "uint256"
        },
        {
          "internalType": "bytes",
          "name": "_authorizationSignatureFromLevel",
          "type": "bytes"
        }
      ],
      "name": "migrate",
      "outputs": [],
      "stateMutability": "nonpayable",
      "type": "function"
    },
    {
      "inputs": [
        {
          "internalType": "address",
          "name": "_user",
          "type": "address"
        },
        {
          "internalType": "address[]",
          "name": "_tokens",
          "type": "address[]"
        },
        {
          "internalType": "address",
          "name": "_migratorContract",
          "type": "address"
        },
        {
          "internalType": "address",
          "name": "_destination",
          "type": "address"
        },
        {
          "internalType": "uint256",
          "name": "_signatureExpiry",
          "type": "uint256"
        },
        {
          "internalType": "bytes",
          "name": "_stakerSignature",
          "type": "bytes"
        }
      ],
      "name": "migrateWithSig",
      "outputs": [],
      "stateMutability": "nonpayable",
      "type": "function"
    },
    {
      "inputs": [
        {
          "internalType": "address",
          "name": "",
          "type": "address"
        }
      ],
      "name": "migratorBlocklist",
      "outputs": [
        {
          "internalType": "bool",
          "name": "",
          "type": "bool"
        }
      ],
      "stateMutability": "view",
      "type": "function"
    },
    {
      "inputs": [
        {
          "internalType": "address",
          "name": "owner",
          "type": "address"
        }
      ],
      "name": "nonces",
      "outputs": [
        {
          "internalType": "uint256",
          "name": "",
          "type": "uint256"
        }
      ],
      "stateMutability": "view",
      "type": "function"
    },
    {
      "inputs": [],
      "name": "owner",
      "outputs": [
        {
          "internalType": "address",
          "name": "",
          "type": "address"
        }
      ],
      "stateMutability": "view",
      "type": "function"
    },
    {
      "inputs": [],
      "name": "pause",
      "outputs": [],
      "stateMutability": "nonpayable",
      "type": "function"
    },
    {
      "inputs": [],
      "name": "paused",
      "outputs": [
        {
          "internalType": "bool",
          "name": "",
          "type": "bool"
        }
      ],
      "stateMutability": "view",
      "type": "function"
    },
    {
      "inputs": [],
      "name": "pendingOwner",
      "outputs": [
        {
          "internalType": "address",
          "name": "",
          "type": "address"
        }
      ],
      "stateMutability": "view",
      "type": "function"
    },
    {
      "inputs": [],
      "name": "renounceOwnership",
      "outputs": [],
      "stateMutability": "nonpayable",
      "type": "function"
    },
    {
      "inputs": [
        {
          "internalType": "address",
          "name": "_signer",
          "type": "address"
        }
      ],
      "name": "setLevelSigner",
      "outputs": [],
      "stateMutability": "nonpayable",
      "type": "function"
    },
    {
      "inputs": [
        {
          "internalType": "address",
          "name": "_token",
          "type": "address"
        },
        {
          "internalType": "uint256",
          "name": "_amount",
          "type": "uint256"
        }
      ],
      "name": "setStakableAmount",
      "outputs": [],
      "stateMutability": "nonpayable",
      "type": "function"
    },
    {
      "inputs": [
        {
          "internalType": "address",
          "name": "",
          "type": "address"
        }
      ],
      "name": "tokenBalanceAllowList",
      "outputs": [
        {
          "internalType": "uint256",
          "name": "",
          "type": "uint256"
        }
      ],
      "stateMutability": "view",
      "type": "function"
    },
    {
      "inputs": [
        {
          "internalType": "address",
          "name": "newOwner",
          "type": "address"
        }
      ],
      "name": "transferOwnership",
      "outputs": [],
      "stateMutability": "nonpayable",
      "type": "function"
    },
    {
      "inputs": [],
      "name": "unpause",
      "outputs": [],
      "stateMutability": "nonpayable",
      "type": "function"
    },
    {
      "inputs": [
        {
          "internalType": "address",
          "name": "_token",
          "type": "address"
        },
        {
          "internalType": "uint256",
          "name": "_amount",
          "type": "uint256"
        }
      ],
      "name": "withdraw",
      "outputs": [],
      "stateMutability": "nonpayable",
      "type": "function"
    }
  ],
  "bytecode": "0x6101806040523480156200001257600080fd5b50d380156200002057600080fd5b50d280156200002e57600080fd5b5060405162002ccc38038062002ccc8339810160408190526200005191620004e2565b604080518082018252601081526f13195d995b14dd185ada5b99d41bdbdb60821b602080830191909152825180840190935260018352603160f81b90830152903380620000b957604051631e4fbdf760e01b8152600060048201526024015b60405180910390fd5b620000c481620002ec565b506001805460ff60a01b19169055620000df8260026200030a565b61012052620000f08160036200030a565b61014052815160208084019190912060e052815190820120610100524660a0526200017e60e05161010051604080517f8b73c3c69bb8fe3d512ecc4cf759cc79239f7b179b0ffacaa9a75d522b39400f60208201529081019290925260608201524660808201523060a082015260009060c00160405160208183030381529060405280519060200120905090565b60805250503060c0526001600160a01b038416620001af576040516367db084560e11b815260040160405180910390fd5b6001600160a01b038116620001d757604051632911293960e01b815260040160405180910390fd5b8251825114620001e657600080fd5b6001600160a01b0381811661016052600980546001600160a01b031916918616919091179055825160005b81811015620002e05760006001600160a01b03168582815181106200023a576200023a620005d9565b60200260200101516001600160a01b0316036200026a57604051635f5d339960e01b815260040160405180910390fd5b8381815181106200027f576200027f620005d9565b602002602001015160056000878481518110620002a057620002a0620005d9565b60200260200101516001600160a01b03166001600160a01b031681526020019081526020016000208190555080620002d890620005ef565b905062000211565b505050505050620007e7565b600180546001600160a01b0319169055620003078162000343565b50565b60006020835110156200032a57620003228362000393565b90506200033d565b81620003378482620006a6565b5060ff90505b92915050565b600080546001600160a01b038381166001600160a01b0319831681178455604051919092169283917f8be0079c531659141344cd1fd0a4f28419497f9722a3daafe3b4186f6b6457e09190a35050565b600080829050601f81511115620003c1578260405163305a27a960e01b8152600401620000b0919062000772565b8051620003ce82620007c2565b179392505050565b80516000906001600160a81b0381168114620003f157600080fd5b6001600160a01b031692915050565b634e487b7160e01b600052604160045260246000fd5b604051601f8201601f191681016001600160401b038111828210171562000441576200044162000400565b604052919050565b60006001600160401b0382111562000465576200046562000400565b5060051b60200190565b600082601f8301126200048157600080fd5b815160206200049a620004948362000449565b62000416565b82815260059290921b84018101918181019086841115620004ba57600080fd5b8286015b84811015620004d75780518352918301918301620004be565b509695505050505050565b60008060008060808587031215620004f957600080fd5b6200050485620003d6565b602086810151919550906001600160401b03808211156200052457600080fd5b818801915088601f8301126200053957600080fd5b81516200054a620004948262000449565b81815260059190911b8301840190848101908b8311156200056a57600080fd5b938501935b8285101562000593576200058385620003d6565b825293850193908501906200056f565b60408b01519098509450505080831115620005ad57600080fd5b5050620005bd878288016200046f565b925050620005ce60608601620003d6565b905092959194509250565b634e487b7160e01b600052603260045260246000fd5b6000600182016200061057634e487b7160e01b600052601160045260246000fd5b5060010190565b600181811c908216806200062c57607f821691505b6020821081036200064d57634e487b7160e01b600052602260045260246000fd5b50919050565b601f821115620006a157600081815260208120601f850160051c810160208610156200067c5750805b601f850160051c820191505b818110156200069d5782815560010162000688565b5050505b505050565b81516001600160401b03811115620006c257620006c262000400565b620006da81620006d3845462000617565b8462000653565b602080601f831160018114620007125760008415620006f95750858301515b600019600386901b1c1916600185901b1785556200069d565b600085815260208120601f198616915b82811015620007435788860151825594840194600190910190840162000722565b5085821015620007625787850151600019600388901b60f8161c191681555b5050505050600190811b01905550565b600060208083528351808285015260005b81811015620007a15785810183015185820160400152820162000783565b506000604082860101526040601f19601f8301168501019250505092915050565b805160208083015191908110156200064d5760001960209190910360031b1b16919050565b60805160a05160c05160e0516101005161012051610140516101605161246a6200086260003960008181610edf01528181610f3701528181610f8d0152611008015260006111e9015260006111b7015260006119610152600061193901526000611894015260006118be015260006118e8015261246a6000f3fe6080604052600436106101355760003560e01c8063b203bb99116100ab578063e3c342161161006f578063e3c3421614610531578063eebdec041461056b578063f03639e3146105a5578063f2fde38b146105df578063f3fef3a314610619578063f6203e351461065357600080fd5b8063b203bb99146103f9578063b3db428b1461044b578063bc44ef2d14610485578063dbe49434146104bf578063e30c3978146104f957600080fd5b806379ba5097116100fd57806379ba5097146102835780637ecebe00146102b25780638456cb591461030257806384b0196e146103315780638da5cb5b14610373578063a5a21fdf146103bf57600080fd5b80633f4ba83a1461013a5780634928fee11461016b5780635c975abb146101c5578063715018a61461020a57806379a26cd014610239575b600080fd5b34801561014657600080fd5b50d3801561015357600080fd5b50d2801561016057600080fd5b50610169610666565b005b34801561017757600080fd5b50d3801561018457600080fd5b50d2801561019157600080fd5b506101b26101a0366004611dbc565b60056020526000908152604090205481565b6040519081526020015b60405180910390f35b3480156101d157600080fd5b50d380156101de57600080fd5b50d280156101eb57600080fd5b50600154600160a01b900460ff165b60405190151581526020016101bc565b34801561021657600080fd5b50d3801561022357600080fd5b50d2801561023057600080fd5b50610169610680565b34801561024557600080fd5b50d3801561025257600080fd5b50d2801561025f57600080fd5b506101fa61026e366004611dbc565b60076020526000908152604090205460ff1681565b34801561028f57600080fd5b50d3801561029c57600080fd5b50d280156102a957600080fd5b50610169610699565b3480156102be57600080fd5b50d380156102cb57600080fd5b50d280156102d857600080fd5b506101b26102e7366004611dbc565b6001600160a01b031660009081526004602052604090205490565b34801561030e57600080fd5b50d3801561031b57600080fd5b50d2801561032857600080fd5b506101696106e2565b34801561033d57600080fd5b50d3801561034a57600080fd5b50d2801561035757600080fd5b506103606106fa565b6040516101bc9796959493929190611e62565b34801561037f57600080fd5b50d3801561038c57600080fd5b50d2801561039957600080fd5b506000546001600160a01b03165b6040516001600160a01b0390911681526020016101bc565b3480156103cb57600080fd5b50d380156103d857600080fd5b50d280156103e557600080fd5b506101696103f4366004611f34565b610740565b34801561040557600080fd5b50d3801561041257600080fd5b50d2801561041f57600080fd5b506101b261042e36600461204e565b600660209081526000928352604080842090915290825290205481565b34801561045757600080fd5b50d3801561046457600080fd5b50d2801561047157600080fd5b50610169610480366004612081565b610879565b34801561049157600080fd5b50d3801561049e57600080fd5b50d280156104ab57600080fd5b506009546103a7906001600160a01b031681565b3480156104cb57600080fd5b50d380156104d857600080fd5b50d280156104e557600080fd5b506101696104f43660046120bd565b610a1d565b34801561050557600080fd5b50d3801561051257600080fd5b50d2801561051f57600080fd5b506001546001600160a01b03166103a7565b34801561053d57600080fd5b50d3801561054a57600080fd5b50d2801561055757600080fd5b506101696105663660046120e7565b610aa5565b34801561057757600080fd5b50d3801561058457600080fd5b50d2801561059157600080fd5b506101696105a0366004611dbc565b610bd1565b3480156105b157600080fd5b50d380156105be57600080fd5b50d280156105cb57600080fd5b506101696105da3660046121c0565b610c83565b3480156105eb57600080fd5b50d380156105f857600080fd5b50d2801561060557600080fd5b50610169610614366004611dbc565b610d4f565b34801561062557600080fd5b50d3801561063257600080fd5b50d2801561063f57600080fd5b5061016961064e3660046120bd565b610dc0565b610169610661366004611dbc565b610e86565b61066e61107d565b6106766110aa565b61067e6110d4565b565b6040516377aeb0ad60e01b815260040160405180910390fd5b60015433906001600160a01b031681146106d65760405163118cdaa760e01b81526001600160a01b03821660048201526024015b60405180910390fd5b6106df81611129565b50565b6106ea61107d565b6106f2611142565b61067e61116d565b60006060806000806000606061070e6111b0565b6107166111e2565b60408051600080825260208201909252600f60f81b9b939a50919850469750309650945092509050565b61074861107d565b60007fe08f530a0e71c7f642d765489160fd44eac817278745c067606534c347d9a2ec8886868a8a6040516020016107819291906121f7565b60405160208183030381529060405280519060200120876107bf8e6001600160a01b0316600090815260046020526040902080546001810190915590565b6040805160208101989098526001600160a01b0396871690880152938516606087015293909116608085015260a084015260c083019190915260e08201526101000160405160208183030381529060405280519060200120905060006108248261120f565b9050610831898285611242565b61084e576040516337e8456b60e01b815260040160405180910390fd5b5050600061085f88888886896112a6565b905061086f8885878a8a86611457565b5050505050505050565b610881611142565b806000036108a2576040516318bb758960e11b815260040160405180910390fd5b6001600160a01b0382166108c85760405162bbe08560e31b815260040160405180910390fd5b6001600160a01b038316600081815260056020526040908190205490516370a0823160e01b81523060048201529091906370a0823190602401602060405180830381865afa15801561091e573d6000803e3d6000fd5b505050506040513d601f19601f820116820180604052508101906109429190612237565b61094c9083612266565b1061096a57604051637772c9c560e01b815260040160405180910390fd5b6001600160a01b038084166000908152600660209081526040808320938616835292905290812080548392906109a1908490612266565b92505081905550826001600160a01b0316826001600160a01b03166008600081546109cb90612279565b91829055506040518481527f2c0f148b435140de488c1b34647f1511c646f7077e87007bacf22ef9977a16d89060200160405180910390a4610a186001600160a01b0384163330846116ed565b505050565b610a2561107d565b6001600160a01b038216610a4c57604051635f5d339960e01b815260040160405180910390fd5b6001600160a01b038216600081815260056020908152604091829020849055815192835282018390527f35d46b75420dd9ec4491bd2dd87bd191f71294a1c1aa219c292d3250f4e6896491015b60405180910390a15050565b6000610ab4338989878a6112a6565b6040516bffffffffffffffffffffffff19606089811b821660208401526034830188905230901b16605482015246606882015290915060009060880160408051601f198184030181529082905280516020918201207f19457468657265756d205369676e6564204d6573736167653a0a33320000000091830191909152603c820152605c0160408051601f198184030181528282528051602091820120600954601f88018390048302850183019093528684529350610b9b926001600160a01b03909216918491889088908190840183828082843760009201919091525061124292505050565b610bb8576040516337e8456b60e01b815260040160405180910390fd5b610bc63387898c8c87611457565b505050505050505050565b610bd961107d565b6001600160a01b038116610c00576040516367db084560e11b815260040160405180910390fd5b6009546001600160a01b0390811690821603610c2f5760405163c0af9fdf60e01b815260040160405180910390fd5b600980546001600160a01b0319166001600160a01b0383169081179091556040519081527f5719a5656c5cfdaafa148ecf366fd3b0a7fae06449ce2a46225977fb7417e29d9060200160405180910390a150565b610c8b61107d565b6001600160a01b038216610cb257604051631a86f04560e01b815260040160405180910390fd5b6001600160a01b03821660009081526007602052604090205481151560ff909116151503610cf357604051631e5a976960e31b815260040160405180910390fd5b6001600160a01b038216600081815260076020908152604091829020805460ff19168515159081179091558251938452908301527f939ba97d9885a19f5539df8bc7d0698b79b1361793009861943fdd98060480339101610a99565b610d5761107d565b600180546001600160a01b0383166001600160a01b03199091168117909155610d886000546001600160a01b031690565b6001600160a01b03167f38d16b8cac22d99fc7c124b9cd0de2d3fa1faef420bfe791d8c362d765e2270060405160405180910390a350565b80600003610de15760405163b8fc0f3b60e01b815260040160405180910390fd5b6001600160a01b038216600090815260066020908152604080832033845290915281208054839290610e14908490612292565b9091555050600880546001600160a01b038416913391600090610e3690612279565b91829055506040518481527ffeb2000dca3e617cd6f3a8bbb63014bb54a124aac6ccbf73ee7229b4cd01f1209060200160405180910390a4610e826001600160a01b038316338361175a565b5050565b610e8e611142565b34600003610eaf576040516318bb758960e11b815260040160405180910390fd5b6001600160a01b038116610ed55760405162bbe08560e31b815260040160405180910390fd5b6001600160a01b037f0000000000000000000000000000000000000000000000000000000000000000166000908152600560205260408120549003610f2d5760405163072b889f60e11b815260040160405180910390fd5b6001600160a01b037f00000000000000000000000000000000000000000000000000000000000000008116600090815260066020908152604080832093851683529290529081208054349290610f84908490612266565b925050819055507f00000000000000000000000000000000000000000000000000000000000000006001600160a01b0316816001600160a01b0316600860008154610fce90612279565b91829055506040513481527f2c0f148b435140de488c1b34647f1511c646f7077e87007bacf22ef9977a16d89060200160405180910390a47f00000000000000000000000000000000000000000000000000000000000000006001600160a01b031663d0e30db0346040518263ffffffff1660e01b81526004016000604051808303818588803b15801561106157600080fd5b505af1158015611075573d6000803e3d6000fd5b505050505050565b6000546001600160a01b0316331461067e5760405163118cdaa760e01b81523360048201526024016106cd565b600154600160a01b900460ff1661067e57604051638dfc202b60e01b815260040160405180910390fd5b6110dc6110aa565b6001805460ff60a01b191690557f5db9ee0a495bf2e6ff9c91a7834c1ba4fdd244a5e8aa4e537bd38aeae4b073aa335b6040516001600160a01b03909116815260200160405180910390a1565b600180546001600160a01b03191690556106df8161178b565b600154600160a01b900460ff161561067e5760405163d93c066560e01b815260040160405180910390fd5b611175611142565b6001805460ff60a01b1916600160a01b1790557f62e78cea01bee320cd4e420270b5ea74000d11b0c9f74754ebdbfc544b05a25861110c3390565b60606111dd7f000000000000000000000000000000000000000000000000000000000000000060026117db565b905090565b60606111dd7f000000000000000000000000000000000000000000000000000000000000000060036117db565b600061123c61121c611887565b8360405161190160f01b8152600281019290925260228201526042902090565b92915050565b600080600061125185856119b2565b509092509050600081600381111561126b5761126b6122a5565b1480156112895750856001600160a01b0316826001600160a01b0316145b8061129a575061129a8686866119ff565b925050505b9392505050565b60608360008190036112cb5760405163e78703a360e01b815260040160405180910390fd5b8067ffffffffffffffff8111156112e4576112e4611f1e565b60405190808252806020026020018201604052801561130d578160200160208202803683370190505b50915060005b818110156113f25760066000888884818110611331576113316122bb565b90506020020160208101906113469190611dbc565b6001600160a01b03166001600160a01b031681526020019081526020016000206000896001600160a01b03166001600160a01b031681526020019081526020016000205483828151811061139c5761139c6122bb565b6020026020010181815250508281815181106113ba576113ba6122bb565b60200260200101516000036113e25760405163a809389f60e01b815260040160405180910390fd5b6113eb81612279565b9050611313565b5083421061141357604051630819bdcd60e01b815260040160405180910390fd5b6001600160a01b03831660009081526007602052604090205460ff161561144d57604051639997d66560e01b815260040160405180910390fd5b5095945050505050565b8160005b8181101561153e5760066000868684818110611479576114796122bb565b905060200201602081019061148e9190611dbc565b6001600160a01b03908116825260208083019390935260409182016000908120918c168152925281205490036114d7576040516323271fb560e11b815260040160405180910390fd5b6000600660008787858181106114ef576114ef6122bb565b90506020020160208101906115049190611dbc565b6001600160a01b03908116825260208083019390935260409182016000908120918d168152925290205561153781612279565b905061145b565b50866001600160a01b031660086000815461155890612279565b9190508190557f8ec7c0970f810f90b2e926cd4ee4f32efff0ef16fb5e08617c11b9fad14dfc0086868a8a8860405161159595949392919061230d565b60405180910390a360005b8181101561167d578484828181106115ba576115ba6122bb565b90506020020160208101906115cf9190611dbc565b6001600160a01b031663095ea7b3878584815181106115f0576115f06122bb565b60200260200101516040518363ffffffff1660e01b81526004016116299291906001600160a01b03929092168252602082015260400190565b6020604051808303816000875af1158015611648573d6000803e3d6000fd5b505050506040513d601f19601f8201168201806040525081019061166c9190612356565b5061167681612279565b90506115a0565b506040516355e663bf60e11b81526001600160a01b0386169063abccc77e906116b2908a90889088908c908990600401612373565b600060405180830381600087803b1580156116cc57600080fd5b505af11580156116e0573d6000803e3d6000fd5b5050505050505050505050565b6040516001600160a01b0384811660248301528381166044830152606482018390526117549186918216906323b872dd906084015b604051602081830303815290604052915060e01b6020820180516001600160e01b038381831617835250505050611ada565b50505050565b6040516001600160a01b03838116602483015260448201839052610a1891859182169063a9059cbb90606401611722565b600080546001600160a01b038381166001600160a01b0319831681178455604051919092169283917f8be0079c531659141344cd1fd0a4f28419497f9722a3daafe3b4186f6b6457e09190a35050565b606060ff83146117f5576117ee83611b3d565b905061123c565b818054611801906123bd565b80601f016020809104026020016040519081016040528092919081815260200182805461182d906123bd565b801561187a5780601f1061184f5761010080835404028352916020019161187a565b820191906000526020600020905b81548152906001019060200180831161185d57829003601f168201915b5050505050905092915050565b6000306001600160a01b037f0000000000000000000000000000000000000000000000000000000000000000161480156118e057507f000000000000000000000000000000000000000000000000000000000000000046145b1561190a57507f000000000000000000000000000000000000000000000000000000000000000090565b6111dd604080517f8b73c3c69bb8fe3d512ecc4cf759cc79239f7b179b0ffacaa9a75d522b39400f60208201527f0000000000000000000000000000000000000000000000000000000000000000918101919091527f000000000000000000000000000000000000000000000000000000000000000060608201524660808201523060a082015260009060c00160405160208183030381529060405280519060200120905090565b600080600083516041036119ec5760208401516040850151606086015160001a6119de88828585611b7c565b9550955095505050506119f8565b50508151600091506002905b9250925092565b6000806000856001600160a01b03168585604051602401611a219291906123f7565b60408051601f198184030181529181526020820180516001600160e01b0316630b135d3f60e11b17905251611a569190612418565b600060405180830381855afa9150503d8060008114611a91576040519150601f19603f3d011682016040523d82523d6000602084013e611a96565b606091505b5091509150818015611aaa57506020815110155b801561129a57508051630b135d3f60e11b90611acf9083016020908101908401612237565b149695505050505050565b6000611aef6001600160a01b03841683611c4b565b90508051600014158015611b14575080806020019051810190611b129190612356565b155b15610a1857604051635274afe760e01b81526001600160a01b03841660048201526024016106cd565b60606000611b4a83611c59565b604080516020808252818301909252919250600091906020820181803683375050509182525060208101929092525090565b600080807f7fffffffffffffffffffffffffffffff5d576e7357a4501ddfe92f46681b20a0841115611bb75750600091506003905082611c41565b604080516000808252602082018084528a905260ff891692820192909252606081018790526080810186905260019060a0016020604051602081039080840390855afa158015611c0b573d6000803e3d6000fd5b5050604051601f1901519150506001600160a01b038116611c3757506000925060019150829050611c41565b9250600091508190505b9450945094915050565b606061129f83836000611c81565b600060ff8216601f81111561123c57604051632cd44ac360e21b815260040160405180910390fd5b606081471015611ca65760405163cd78605960e01b81523060048201526024016106cd565b600080856001600160a01b03168486604051611cc29190612418565b60006040518083038185875af1925050503d8060008114611cff576040519150601f19603f3d011682016040523d82523d6000602084013e611d04565b606091505b509150915061129a868383606082611d2457611d1f82611d6b565b61129f565b8151158015611d3b57506001600160a01b0384163b155b15611d6457604051639996b31560e01b81526001600160a01b03851660048201526024016106cd565b508061129f565b805115611d7b5780518082602001fd5b604051630a12f52160e11b815260040160405180910390fd5b600081356001600160a81b0381168114611dad57600080fd5b6001600160a01b031692915050565b600060208284031215611dce57600080fd5b61129f82611d94565b60005b83811015611df2578181015183820152602001611dda565b50506000910152565b60008151808452611e13816020860160208601611dd7565b601f01601f19169290920160200192915050565b600081518084526020808501945080840160005b83811015611e5757815187529582019590820190600101611e3b565b509495945050505050565b60ff60f81b8816815260e060208201526000611e8160e0830189611dfb565b8281036040840152611e938189611dfb565b606084018890526001600160a01b038716608085015260a0840186905283810360c08501529050611ec48185611e27565b9a9950505050505050505050565b60008083601f840112611ee457600080fd5b50813567ffffffffffffffff811115611efc57600080fd5b6020830191508360208260051b8501011115611f1757600080fd5b9250929050565b634e487b7160e01b600052604160045260246000fd5b600080600080600080600060c0888a031215611f4f57600080fd5b611f5888611d94565b9650602088013567ffffffffffffffff80821115611f7557600080fd5b611f818b838c01611ed2565b9098509650869150611f9560408b01611d94565b9550611fa360608b01611d94565b945060808a0135935060a08a0135915080821115611fc057600080fd5b818a0191508a601f830112611fd457600080fd5b813581811115611fe657611fe6611f1e565b604051601f8201601f19908116603f0116810190838211818310171561200e5761200e611f1e565b816040528281528d602084870101111561202757600080fd5b82602086016020830137600060208483010152809550505050505092959891949750929550565b6000806040838503121561206157600080fd5b61206a83611d94565b915061207860208401611d94565b90509250929050565b60008060006060848603121561209657600080fd5b61209f84611d94565b92506120ad60208501611d94565b9150604084013590509250925092565b600080604083850312156120d057600080fd5b6120d983611d94565b946020939093013593505050565b600080600080600080600060a0888a03121561210257600080fd5b873567ffffffffffffffff8082111561211a57600080fd5b6121268b838c01611ed2565b909950975087915061213a60208b01611d94565b965061214860408b01611d94565b955060608a0135945060808a013591508082111561216557600080fd5b818a0191508a601f83011261217957600080fd5b81358181111561218857600080fd5b8b602082850101111561219a57600080fd5b60208301945080935050505092959891949750929550565b80151581146106df57600080fd5b600080604083850312156121d357600080fd5b6121dc83611d94565b915060208301356121ec816121b2565b809150509250929050565b60008184825b8581101561222c576001600160a01b0361221683611d94565b16835260209283019291909101906001016121fd565b509095945050505050565b60006020828403121561224957600080fd5b5051919050565b634e487b7160e01b600052601160045260246000fd5b8082018082111561123c5761123c612250565b60006001820161228b5761228b612250565b5060010190565b8181038181111561123c5761123c612250565b634e487b7160e01b600052602160045260246000fd5b634e487b7160e01b600052603260045260246000fd5b8183526000602080850194508260005b85811015611e57576001600160a01b036122fa83611d94565b16875295820195908201906001016122e1565b6080815260006123216080830187896122d1565b6001600160a01b03868116602085015285166040840152828103606084015261234a8185611e27565b98975050505050505050565b60006020828403121561236857600080fd5b815161129f816121b2565b600060018060a01b038088168352608060208401526123966080840187896122d1565b818616604085015283810360608501526123b08186611e27565b9998505050505050505050565b600181811c908216806123d157607f821691505b6020821081036123f157634e487b7160e01b600052602260045260246000fd5b50919050565b8281526040602082015260006124106040830184611dfb565b949350505050565b6000825161242a818460208701611dd7565b919091019291505056fea26474726f6e582212202f04cc6fef929926e3f43b8dbbc223d1a537e052ad925402e8bbfceabd35bccc64736f6c63430008140033",
  "source": "// SPDX-License-Identifier: UNLICENSED\npragma solidity 0.8.20;\n\nimport {IERC20} from \"@openzeppelin/contracts/token/ERC20/IERC20.sol\";\nimport {SafeERC20} from \"@openzeppelin/contracts/token/ERC20/utils/SafeERC20.sol\";\nimport {Ownable2Step} from \"@openzeppelin/contracts/access/Ownable2Step.sol\";\nimport {Ownable} from \"@openzeppelin/contracts/access/Ownable.sol\";\nimport {SignatureChecker} from \"@openzeppelin/contracts/utils/cryptography/SignatureChecker.sol\";\nimport {Pausable} from \"@openzeppelin/contracts/utils/Pausable.sol\";\nimport {EIP712} from \"@openzeppelin/contracts/utils/cryptography/EIP712.sol\";\nimport {Nonces} from \"@openzeppelin/contracts/utils/Nonces.sol\";\nimport \"./interface/IWETH.sol\";\n\nimport \"./interface/IMigrator.sol\";\nimport \"./interface/ILevelStakingPool.sol\";\n\n/// @title Level Staking Pool\n/// @notice A staking pool which rewards stakers with points from multiple platforms\ncontract LevelStakingPool is\n    ILevelStakingPool,\n    Ownable2Step,\n    Pausable,\n    EIP712,\n    Nonces\n{\n    using SafeERC20 for IERC20;\n\n    bytes32 private constant MIGRATE_TYPEHASH =\n        keccak256(\n            \"Migrate(address user,address migratorContract,address destination,address[] tokens,uint256 signatureExpiry,uint256 nonce)\"\n        );\n\n    // (tokenAddress => isAllowedForStaking)\n    mapping(address => uint256) public tokenBalanceAllowList;\n\n    // (tokenAddress => stakerAddress => stakedAmount)\n    mapping(address => mapping(address => uint256)) public balance;\n\n    // (migratorContract => isBlocklisted)\n    mapping(address => bool) public migratorBlocklist;\n\n    // Next eventId to emit\n    uint256 private eventId;\n\n    // Required signer for the migration message\n    address public levelSigner;\n\n    // ETH's special address\n    address immutable WETH_ADDRESS;\n\n    constructor(\n        address _signer,\n        address[] memory _tokensAllowed,\n        uint256[] memory _limits,\n        address _weth\n    ) Ownable(msg.sender) EIP712(\"LevelStakingPool\", \"1\") {\n        if (_signer == address(0)) revert SignerCannotBeZeroAddress();\n        if (_weth == address(0)) revert WETHCannotBeZeroAddress();\n        if (_limits.length != _tokensAllowed.length){\n            revert();\n        }\n\n        WETH_ADDRESS = _weth;\n        levelSigner = _signer;\n        uint256 length = _tokensAllowed.length;\n        for (uint256 i; i < length; ++i) {\n            if (_tokensAllowed[i] == address(0))\n                revert TokenCannotBeZeroAddress();\n            tokenBalanceAllowList[_tokensAllowed[i]] = _limits[i];\n        }\n    }\n\n    /*//////////////////////////////////////////////////////////////\n                            Staker Functions\n    //////////////////////////////////////////////////////////////*/\n\n    /**\n     * @inheritdoc ILevelStakingPool\n     */\n    function depositFor(\n        address _token,\n        address _for,\n        uint256 _amount\n    ) external whenNotPaused {\n        if (_amount == 0) revert DepositAmountCannotBeZero();\n        if (_for == address(0)) revert CannotDepositForZeroAddress();\n        if (_amount + IERC20(_token).balanceOf(address(this)) >= tokenBalanceAllowList[_token]){\n            revert StakingLimitExceeded();\n        }\n\n        balance[_token][_for] += _amount;\n\n        emit Deposit(++eventId, _for, _token, _amount);\n\n        IERC20(_token).safeTransferFrom(msg.sender, address(this), _amount);\n    }\n\n    function depositETHFor(address _for) external payable whenNotPaused {\n        if (msg.value == 0) revert DepositAmountCannotBeZero();\n        if (_for == address(0)) revert CannotDepositForZeroAddress();\n        if (tokenBalanceAllowList[WETH_ADDRESS] == 0) revert TokenNotAllowedForStaking();\n\n        balance[WETH_ADDRESS][_for] += msg.value;\n        emit Deposit(++eventId, _for, WETH_ADDRESS, msg.value);\n\n        IWETH(WETH_ADDRESS).deposit{value: msg.value}();\n    }\n\n    /**\n     * @inheritdoc ILevelStakingPool\n     */\n    function withdraw(address _token, uint256 _amount) external {\n        if (_amount == 0) revert WithdrawAmountCannotBeZero();\n\n        balance[_token][msg.sender] -= _amount; //Will underfow if the staker has insufficient balance\n        emit Withdraw(++eventId, msg.sender, _token, _amount);\n\n        IERC20(_token).safeTransfer(msg.sender, _amount);\n    }\n\n    /**\n     * @inheritdoc ILevelStakingPool\n     */\n    function migrateWithSig(\n        address _user,\n        address[] calldata _tokens,\n        address _migratorContract,\n        address _destination,\n        uint256 _signatureExpiry,\n        bytes memory _stakerSignature\n    ) external onlyOwner {\n        {\n            bytes32 structHash = keccak256(\n                abi.encode(\n                    MIGRATE_TYPEHASH,\n                    _user,\n                    _migratorContract,\n                    _destination,\n                    //The array values are encoded as the keccak256 hash of the concatenated encodeData of their contents\n                    //Ref: https://eips.ethereum.org/EIPS/eip-712#definition-of-encodedata\n                    keccak256(abi.encodePacked(_tokens)),\n                    _signatureExpiry,\n                    _useNonce(_user)\n                )\n            );\n            bytes32 constructedHash = _hashTypedDataV4(structHash);\n\n            if (\n                !SignatureChecker.isValidSignatureNow(\n                    _user,\n                    constructedHash,\n                    _stakerSignature\n                )\n            ) {\n                revert SignatureInvalid();\n            }\n        }\n\n        uint256[] memory _amounts = _migrateChecks(\n            _user,\n            _tokens,\n            _signatureExpiry,\n            _migratorContract\n        );\n        _migrate(_user, _destination, _migratorContract, _tokens, _amounts);\n    }\n\n    /**\n     * @inheritdoc ILevelStakingPool\n     */\n    function migrate(\n        address[] calldata _tokens,\n        address _migratorContract,\n        address _destination,\n        uint256 _signatureExpiry,\n        bytes calldata _authorizationSignatureFromLevel\n    ) external {\n        uint256[] memory _amounts = _migrateChecks(\n            msg.sender,\n            _tokens,\n            _signatureExpiry,\n            _migratorContract\n        );\n\n        bytes32 constructedHash = keccak256(\n            abi.encodePacked(\n                \"\\x19Ethereum Signed Message:\\n32\",\n                keccak256(\n                    abi.encodePacked(\n                        _migratorContract,\n                        _signatureExpiry,\n                        address(this),\n                        block.chainid\n                    )\n                )\n            )\n        );\n\n        // verify that the migrators address is signed in the authorization signature by the correct signer (levelSigner)\n        if (\n            !SignatureChecker.isValidSignatureNow(\n                levelSigner,\n                constructedHash,\n                _authorizationSignatureFromLevel\n            )\n        ) {\n            revert SignatureInvalid();\n        }\n\n        _migrate(\n            msg.sender,\n            _destination,\n            _migratorContract,\n            _tokens,\n            _amounts\n        );\n    }\n\n    function _migrateChecks(\n        address _user,\n        address[] calldata _tokens,\n        uint256 _signatureExpiry,\n        address _migratorContract\n    ) internal view returns (uint256[] memory _amounts) {\n        uint256 length = _tokens.length;\n        if (length == 0) revert TokenArrayCannotBeEmpty();\n\n        _amounts = new uint256[](length);\n\n        for (uint256 i; i < length; ++i) {\n            _amounts[i] = balance[_tokens[i]][_user];\n            if (_amounts[i] == 0) revert UserDoesNotHaveStake();\n        }\n\n        if (block.timestamp >= _signatureExpiry) revert SignatureExpired(); // allows us to invalidate signature by having it expired\n\n        if (migratorBlocklist[_migratorContract]) revert MigratorBlocked();\n    }\n\n    function _migrate(\n        address _user,\n        address _destination,\n        address _migratorContract,\n        address[] calldata _tokens,\n        uint256[] memory _amounts\n    ) internal {\n        uint256 length = _tokens.length;\n        //effects for-loop (state changes)\n        for (uint256 i; i < length; ++i) {\n            //if the balance has been already set to zero, then _tokens[i] is a duplicate of a previous token in the array\n            if (balance[_tokens[i]][_user] == 0) revert DuplicateToken();\n\n            balance[_tokens[i]][_user] = 0;\n        }\n\n        emit Migrate(\n            ++eventId,\n            _user,\n            _tokens,\n            _destination,\n            _migratorContract,\n            _amounts\n        );\n\n        //interactions for-loop (external calls)\n        for (uint256 i; i < length; ++i) {\n            IERC20(_tokens[i]).approve(_migratorContract, _amounts[i]);\n        }\n\n        IMigrator(_migratorContract).migrate(\n            _user,\n            _tokens,\n            _destination,\n            _amounts\n        );\n    }\n\n    /*//////////////////////////////////////////////////////////////\n                            Admin Functions\n    //////////////////////////////////////////////////////////////*/\n\n    /**\n     * @inheritdoc ILevelStakingPool\n     */\n    function setLevelSigner(address _signer) external onlyOwner {\n        if (_signer == address(0)) revert SignerCannotBeZeroAddress();\n        if (_signer == levelSigner) revert SignerAlreadySetToAddress();\n\n        levelSigner = _signer;\n        emit SignerChanged(_signer);\n    }\n\n    /**\n     * @inheritdoc ILevelStakingPool\n     */\n    function setStakableAmount(address _token, uint256 _amount) external onlyOwner {\n        if (_token == address(0)) revert TokenCannotBeZeroAddress();\n        tokenBalanceAllowList[_token] = _amount;\n        emit TokenStakabilityChanged(_token, _amount);\n    }\n\n    /**\n     * @inheritdoc ILevelStakingPool\n     */\n    function blockMigrator(\n        address _migrator,\n        bool _blocklisted\n    ) external onlyOwner {\n        if (_migrator == address(0)) revert MigratorCannotBeZeroAddress();\n        if (migratorBlocklist[_migrator] == _blocklisted)\n            revert MigratorAlreadyAllowedOrBlocked();\n\n        migratorBlocklist[_migrator] = _blocklisted;\n        emit BlocklistChanged(_migrator, _blocklisted);\n    }\n\n    /**\n     * @inheritdoc ILevelStakingPool\n     */\n    function pause() external onlyOwner whenNotPaused {\n        _pause();\n    }\n\n    /**\n     * @inheritdoc ILevelStakingPool\n     */\n    function unpause() external onlyOwner whenPaused {\n        _unpause();\n    }\n\n    function renounceOwnership() public override {\n        revert CannotRenounceOwnership();\n    }\n}\n",
  "sourcePath": "/Users/leo/Documents/GitHub/clone2/points-farm/contracts/LevelStakingPool.sol",
  "compiler": {
    "name": "solc",
    "version": "0.8.20+commit.5f1834bc.Emscripten.clang"
  },
  "schemaVersion": "2.0.1",
  "updatedAt": "2024-08-13T20:29:55.503Z"
}